{
  "contractName": "Election",
  "abi": [
    {
      "constant": true,
      "inputs": [],
      "name": "candidatesCount",
      "outputs": [
        {
          "name": "",
          "type": "uint256"
        }
      ],
      "payable": false,
      "stateMutability": "view",
      "type": "function"
    },
    {
      "constant": true,
      "inputs": [
        {
          "name": "",
          "type": "uint256"
        }
      ],
      "name": "candidates",
      "outputs": [
        {
          "name": "id",
          "type": "uint256"
        },
        {
          "name": "name",
          "type": "string"
        },
        {
          "name": "voteCount",
          "type": "uint256"
        }
      ],
      "payable": false,
      "stateMutability": "view",
      "type": "function"
    },
    {
      "constant": true,
      "inputs": [
        {
          "name": "",
          "type": "address"
        }
      ],
      "name": "voters",
      "outputs": [
        {
          "name": "",
          "type": "bool"
        }
      ],
      "payable": false,
      "stateMutability": "view",
      "type": "function"
    },
    {
      "inputs": [],
      "payable": false,
      "stateMutability": "nonpayable",
      "type": "constructor"
    },
    {
      "constant": false,
      "inputs": [
        {
          "name": "_name",
          "type": "string"
        }
      ],
      "name": "addCandidate",
      "outputs": [],
      "payable": false,
      "stateMutability": "nonpayable",
      "type": "function"
    },
    {
      "constant": false,
      "inputs": [
        {
          "name": "_candidateId",
          "type": "uint256"
        }
      ],
      "name": "vote",
      "outputs": [],
      "payable": false,
      "stateMutability": "nonpayable",
      "type": "function"
    }
  ],
  "bytecode": "0x608060405234801561001057600080fd5b50336000806101000a81548173ffffffffffffffffffffffffffffffffffffffff021916908373ffffffffffffffffffffffffffffffffffffffff16021790555061009e6040805190810160405280600b81526020017f43616e64696461746520310000000000000000000000000000000000000000008152506100f0640100000000026401000000009004565b6100eb6040805190810160405280600b81526020017f43616e64696461746520320000000000000000000000000000000000000000008152506100f0640100000000026401000000009004565b610322565b3373ffffffffffffffffffffffffffffffffffffffff166000809054906101000a900473ffffffffffffffffffffffffffffffffffffffff1673ffffffffffffffffffffffffffffffffffffffff16141515610200576040517f08c379a000000000000000000000000000000000000000000000000000000000815260040180806020018281038252604e8152602001807f53656e646572206e6f7420617574686f72697a65642e20506c6561736520636f81526020017f6e7461637420636f6e74616374206f776e657220666f7220616464696e67206e81526020017f65772063616e646964617465732e00000000000000000000000000000000000081525060600191505060405180910390fd5b6003600081548092919060010191905055506060604051908101604052806003548152602001828152602001600081525060026000600354815260200190815260200160002060008201518160000155602082015181600101908051906020019061026c92919061027d565b506040820151816002015590505050565b828054600181600116156101000203166002900490600052602060002090601f016020900481019282601f106102be57805160ff19168380011785556102ec565b828001600101855582156102ec579182015b828111156102eb5782518255916020019190600101906102d0565b5b5090506102f991906102fd565b5090565b61031f91905b8082111561031b576000816000905550600101610303565b5090565b90565b61067e806103316000396000f30060806040526004361061006d576000357c0100000000000000000000000000000000000000000000000000000000900463ffffffff1680630121b93f146100725780632d35a8a21461009f5780633477ee2e146100ca578063462e91ec1461017e578063a3ec138d146101e7575b600080fd5b34801561007e57600080fd5b5061009d60048036038101908080359060200190929190505050610242565b005b3480156100ab57600080fd5b506100b4610338565b6040518082815260200191505060405180910390f35b3480156100d657600080fd5b506100f56004803603810190808035906020019092919050505061033e565b6040518084815260200180602001838152602001828103825284818151815260200191508051906020019080838360005b83811015610141578082015181840152602081019050610126565b50505050905090810190601f16801561016e5780820380516001836020036101000a031916815260200191505b5094505050505060405180910390f35b34801561018a57600080fd5b506101e5600480360381019080803590602001908201803590602001908080601f0160208091040260200160405190810160405280939291908181526020018383808284378201915050505050509192919290505050610400565b005b3480156101f357600080fd5b50610228600480360381019080803573ffffffffffffffffffffffffffffffffffffffff16906020019092919050505061058d565b604051808215151515815260200191505060405180910390f35b600160003373ffffffffffffffffffffffffffffffffffffffff1673ffffffffffffffffffffffffffffffffffffffff16815260200190815260200160002060009054906101000a900460ff1615151561029b57600080fd5b6000811180156102ad57506003548111155b15156102b857600080fd5b60018060003373ffffffffffffffffffffffffffffffffffffffff1673ffffffffffffffffffffffffffffffffffffffff16815260200190815260200160002060006101000a81548160ff021916908315150217905550600260008281526020019081526020016000206002016000815480929190600101919050555050565b60035481565b6002602052806000526040600020600091509050806000015490806001018054600181600116156101000203166002900480601f0160208091040260200160405190810160405280929190818152602001828054600181600116156101000203166002900480156103f05780601f106103c5576101008083540402835291602001916103f0565b820191906000526020600020905b8154815290600101906020018083116103d357829003601f168201915b5050505050908060020154905083565b3373ffffffffffffffffffffffffffffffffffffffff166000809054906101000a900473ffffffffffffffffffffffffffffffffffffffff1673ffffffffffffffffffffffffffffffffffffffff16141515610510576040517f08c379a000000000000000000000000000000000000000000000000000000000815260040180806020018281038252604e8152602001807f53656e646572206e6f7420617574686f72697a65642e20506c6561736520636f81526020017f6e7461637420636f6e74616374206f776e657220666f7220616464696e67206e81526020017f65772063616e646964617465732e00000000000000000000000000000000000081525060600191505060405180910390fd5b6003600081548092919060010191905055506060604051908101604052806003548152602001828152602001600081525060026000600354815260200190815260200160002060008201518160000155602082015181600101908051906020019061057c9291906105ad565b506040820151816002015590505050565b60016020528060005260406000206000915054906101000a900460ff1681565b828054600181600116156101000203166002900490600052602060002090601f016020900481019282601f106105ee57805160ff191683800117855561061c565b8280016001018555821561061c579182015b8281111561061b578251825591602001919060010190610600565b5b509050610629919061062d565b5090565b61064f91905b8082111561064b576000816000905550600101610633565b5090565b905600a165627a7a72305820e58c87c84a10cbc911a54681348418593b34d19d9abfc69cbc24c0205b659b590029",
  "source": "pragma solidity ^0.4.24;\n\ncontract Election {\n   // Model a Candidate\n    struct Candidate {\n        uint id;\n        string name;\n        uint voteCount;\n    }\n\n    // contract owner\n\taddress owner;\n    // Store accounts that have voted\n    mapping(address => bool) public voters;\n    // Read/write candidates\n    mapping(uint => Candidate) public candidates;\n    // Store Candidates Count\n    uint public candidatesCount;\n\n    constructor () public {\n    \towner = msg.sender;\n        addCandidate(\"Candidate 1\");\n        addCandidate(\"Candidate 2\");\n    }\n\n    function addCandidate (string _name) public {\n    \trequire(owner == msg.sender, \"Sender not authorized. Please contact contact owner for adding new candidates.\");\n        candidatesCount ++;\n        candidates[candidatesCount] = Candidate(candidatesCount, _name, 0);\n    }\n\n    function vote (uint _candidateId) public {\n        // require that they haven't voted before\n        require(!voters[msg.sender]);\n\n        // require a valid candidate\n        require(_candidateId > 0 && _candidateId <= candidatesCount);\n\n        // record that voter has voted\n        voters[msg.sender] = true;\n\n        // update candidate vote Count\n        candidates[_candidateId].voteCount ++;\n    }\n}",
  "sourcePath": "/Users/i501492/dev/dapp-init/contracts/Election.sol",
  "compiler": {
    "name": "solc",
    "version": "0.4.24+commit.e67f0147.Emscripten.clang"
  },
  "schemaVersion": "2.0.1",
  "updatedAt": "2018-12-11T08:51:22.139Z"
}