{
  "contractName": "Election",
  "abi": [
    {
      "constant": true,
      "inputs": [],
      "name": "candidatesCount",
      "outputs": [
        {
          "name": "",
          "type": "uint256"
        }
      ],
      "payable": false,
      "stateMutability": "view",
      "type": "function"
    },
    {
      "constant": true,
      "inputs": [
        {
          "name": "",
          "type": "uint256"
        }
      ],
      "name": "candidates",
      "outputs": [
        {
          "name": "id",
          "type": "uint256"
        },
        {
          "name": "name",
          "type": "string"
        },
        {
          "name": "voteCount",
          "type": "uint256"
        }
      ],
      "payable": false,
      "stateMutability": "view",
      "type": "function"
    },
    {
      "constant": true,
      "inputs": [
        {
          "name": "",
          "type": "address"
        }
      ],
      "name": "voters",
      "outputs": [
        {
          "name": "",
          "type": "bool"
        }
      ],
      "payable": false,
      "stateMutability": "view",
      "type": "function"
    },
    {
      "inputs": [
        {
          "name": "_passportDB",
          "type": "address"
        }
      ],
      "payable": false,
      "stateMutability": "nonpayable",
      "type": "constructor"
    },
    {
      "constant": false,
      "inputs": [
        {
          "name": "_name",
          "type": "string"
        }
      ],
      "name": "addCandidate",
      "outputs": [],
      "payable": false,
      "stateMutability": "nonpayable",
      "type": "function"
    },
    {
      "constant": false,
      "inputs": [],
      "name": "closeVoting",
      "outputs": [],
      "payable": false,
      "stateMutability": "nonpayable",
      "type": "function"
    },
    {
      "constant": false,
      "inputs": [
        {
          "name": "_candidateId",
          "type": "uint256"
        }
      ],
      "name": "vote",
      "outputs": [],
      "payable": false,
      "stateMutability": "nonpayable",
      "type": "function"
    }
  ],
  "bytecode": "0x608060405234801561001057600080fd5b50604051602080610dce8339810180604052810190808051906020019092919050505033600160006101000a81548173ffffffffffffffffffffffffffffffffffffffff021916908373ffffffffffffffffffffffffffffffffffffffff16021790555080600060016101000a81548173ffffffffffffffffffffffffffffffffffffffff021916908373ffffffffffffffffffffffffffffffffffffffff16021790555060008060006101000a81548160ff02191690831515021790555061011c6040805190810160405280600b81526020017f43616e646964617465203100000000000000000000000000000000000000000081525061016f640100000000026401000000009004565b6101696040805190810160405280600b81526020017f43616e646964617465203200000000000000000000000000000000000000000081525061016f640100000000026401000000009004565b506103a2565b3373ffffffffffffffffffffffffffffffffffffffff16600160009054906101000a900473ffffffffffffffffffffffffffffffffffffffff1673ffffffffffffffffffffffffffffffffffffffff16141515610280576040517f08c379a000000000000000000000000000000000000000000000000000000000815260040180806020018281038252604e8152602001807f53656e646572206e6f7420617574686f72697a65642e20506c6561736520636f81526020017f6e7461637420636f6e74616374206f776e657220666f7220616464696e67206e81526020017f65772063616e646964617465732e00000000000000000000000000000000000081525060600191505060405180910390fd5b600460008154809291906001019190505550606060405190810160405280600454815260200182815260200160008152506003600060045481526020019081526020016000206000820151816000015560208201518160010190805190602001906102ec9291906102fd565b506040820151816002015590505050565b828054600181600116156101000203166002900490600052602060002090601f016020900481019282601f1061033e57805160ff191683800117855561036c565b8280016001018555821561036c579182015b8281111561036b578251825591602001919060010190610350565b5b509050610379919061037d565b5090565b61039f91905b8082111561039b576000816000905550600101610383565b5090565b90565b610a1d806103b16000396000f300608060405260043610610078576000357c0100000000000000000000000000000000000000000000000000000000900463ffffffff1680630121b93f1461007d5780632d35a8a2146100aa5780633477ee2e146100d5578063462e91ec14610189578063a3ec138d146101f2578063c631b2921461024d575b600080fd5b34801561008957600080fd5b506100a860048036038101908080359060200190929190505050610264565b005b3480156100b657600080fd5b506100bf610571565b6040518082815260200191505060405180910390f35b3480156100e157600080fd5b5061010060048036038101908080359060200190929190505050610577565b6040518084815260200180602001838152602001828103825284818151815260200191508051906020019080838360005b8381101561014c578082015181840152602081019050610131565b50505050905090810190601f1680156101795780820380516001836020036101000a031916815260200191505b5094505050505060405180910390f35b34801561019557600080fd5b506101f0600480360381019080803590602001908201803590602001908080601f0160208091040260200160405190810160405280939291908181526020018383808284378201915050505050509192919290505050610639565b005b3480156101fe57600080fd5b50610233600480360381019080803573ffffffffffffffffffffffffffffffffffffffff1690602001909291905050506107c7565b604051808215151515815260200191505060405180910390f35b34801561025957600080fd5b506102626107e7565b005b600060019054906101000a900473ffffffffffffffffffffffffffffffffffffffff1673ffffffffffffffffffffffffffffffffffffffff1663ccb58761336040518263ffffffff167c0100000000000000000000000000000000000000000000000000000000028152600401808273ffffffffffffffffffffffffffffffffffffffff1673ffffffffffffffffffffffffffffffffffffffff168152602001915050602060405180830381600087803b15801561032157600080fd5b505af1158015610335573d6000803e3d6000fd5b505050506040513d602081101561034b57600080fd5b810190808051906020019092919050505015156103f6576040517f08c379a00000000000000000000000000000000000000000000000000000000081526004018080602001828103825260228152602001807f4e6f2070617373706f727420696e666f2070726f766964656420627920766f7481526020017f657200000000000000000000000000000000000000000000000000000000000081525060400191505060405180910390fd5b600260003373ffffffffffffffffffffffffffffffffffffffff1673ffffffffffffffffffffffffffffffffffffffff16815260200190815260200160002060009054906101000a900460ff1615151561044f57600080fd5b60008111801561046157506004548111155b151561046c57600080fd5b6000809054906101000a900460ff161515156104f0576040517f08c379a000000000000000000000000000000000000000000000000000000000815260040180806020018281038252601a8152602001807f536f7272792062757420766f74696e6720697320636c6f73656400000000000081525060200191505060405180910390fd5b6001600260003373ffffffffffffffffffffffffffffffffffffffff1673ffffffffffffffffffffffffffffffffffffffff16815260200190815260200160002060006101000a81548160ff021916908315150217905550600360008281526020019081526020016000206002016000815480929190600101919050555050565b60045481565b6003602052806000526040600020600091509050806000015490806001018054600181600116156101000203166002900480601f0160208091040260200160405190810160405280929190818152602001828054600181600116156101000203166002900480156106295780601f106105fe57610100808354040283529160200191610629565b820191906000526020600020905b81548152906001019060200180831161060c57829003601f168201915b5050505050908060020154905083565b3373ffffffffffffffffffffffffffffffffffffffff16600160009054906101000a900473ffffffffffffffffffffffffffffffffffffffff1673ffffffffffffffffffffffffffffffffffffffff1614151561074a576040517f08c379a000000000000000000000000000000000000000000000000000000000815260040180806020018281038252604e8152602001807f53656e646572206e6f7420617574686f72697a65642e20506c6561736520636f81526020017f6e7461637420636f6e74616374206f776e657220666f7220616464696e67206e81526020017f65772063616e646964617465732e00000000000000000000000000000000000081525060600191505060405180910390fd5b600460008154809291906001019190505550606060405190810160405280600454815260200182815260200160008152506003600060045481526020019081526020016000206000820151816000015560208201518160010190805190602001906107b692919061094c565b506040820151816002015590505050565b60026020528060005260406000206000915054906101000a900460ff1681565b3373ffffffffffffffffffffffffffffffffffffffff16600160009054906101000a900473ffffffffffffffffffffffffffffffffffffffff1673ffffffffffffffffffffffffffffffffffffffff161415156108ac576040517f08c379a000000000000000000000000000000000000000000000000000000000815260040180806020018281038252601b8152602001807f4f6e6c79206f776e65722063616e20636c6f736520766f74696e67000000000081525060200191505060405180910390fd5b6000809054906101000a900460ff16151515610930576040517f08c379a00000000000000000000000000000000000000000000000000000000081526004018080602001828103825260188152602001807f566f74696e6720697320616c726561647920636c6f736564000000000000000081525060200191505060405180910390fd5b60016000806101000a81548160ff021916908315150217905550565b828054600181600116156101000203166002900490600052602060002090601f016020900481019282601f1061098d57805160ff19168380011785556109bb565b828001600101855582156109bb579182015b828111156109ba57825182559160200191906001019061099f565b5b5090506109c891906109cc565b5090565b6109ee91905b808211156109ea5760008160009055506001016109d2565b5090565b905600a165627a7a723058201adeb28ed6bf3e6a2ccebd660a0b76edcf8c2a296b43257d176cfc78d34d6f8e0029",
  "source": "pragma solidity ^0.4.24;\n\ncontract Election {\n   // Model a Candidate\n    struct Candidate {\n        uint id;\n        string name;\n        uint voteCount;\n    }\n\n    bool votingClosed;\n    address passportDB;\n    // contract owner\n\taddress owner;\n    // Store accounts that have voted\n    mapping(address => bool) public voters;\n    // Read/write candidates\n    mapping(uint => Candidate) public candidates;\n    // Store Candidates Count\n    uint public candidatesCount;\n\n    constructor (address _passportDB) public {\n    \towner = msg.sender;\n        passportDB = _passportDB;\n        votingClosed = false;\n        addCandidate(\"Candidate 1\");\n        addCandidate(\"Candidate 2\");\n    }\n\n    function addCandidate (string _name) public {\n    \trequire(owner == msg.sender, \"Sender not authorized. Please contact contact owner for adding new candidates.\");\n        candidatesCount ++;\n        candidates[candidatesCount] = Candidate(candidatesCount, _name, 0);\n    }\n\n    function closeVoting() public {\n        require(owner == msg.sender, \"Only owner can close voting\");\n        require(!votingClosed, \"Voting is already closed\");\n        votingClosed = true;\n    }\n\n    function vote (uint _candidateId) public {\n        // require that voter provided his passport info\n        require(Passport(passportDB).voterIsRegistered(msg.sender), \"No passport info provided by voter\");\n        // require that they haven't voted before\n        require(!voters[msg.sender]);\n        // require a valid candidate\n        require(_candidateId > 0 && _candidateId <= candidatesCount);\n        // voting is closed\n        require(!votingClosed, \"Sorry but voting is closed\");\n\n        // record that voter has voted\n        voters[msg.sender] = true;\n\n        // update candidate vote Count\n        candidates[_candidateId].voteCount ++;\n    }\n}\n\ncontract Passport {\n    function voterIsRegistered (address voterAddress) public view returns (bool);\n}",
  "sourcePath": "/Users/i501492/dev/dapp-init/contracts/Election.sol",
  "compiler": {
    "name": "solc",
    "version": "0.4.24+commit.e67f0147.Emscripten.clang"
  },
  "schemaVersion": "2.0.1",
  "updatedAt": "2018-12-13T12:31:56.037Z"
}