{
  "contractName": "Passport",
  "abi": [
    {
      "constant": true,
      "inputs": [],
      "name": "votersCount",
      "outputs": [
        {
          "name": "",
          "type": "uint256"
        }
      ],
      "payable": false,
      "stateMutability": "view",
      "type": "function"
    },
    {
      "constant": true,
      "inputs": [
        {
          "name": "",
          "type": "address"
        }
      ],
      "name": "voters",
      "outputs": [
        {
          "name": "fName",
          "type": "string"
        },
        {
          "name": "lName",
          "type": "string"
        },
        {
          "name": "age",
          "type": "uint256"
        }
      ],
      "payable": false,
      "stateMutability": "view",
      "type": "function"
    },
    {
      "inputs": [],
      "payable": false,
      "stateMutability": "nonpayable",
      "type": "constructor"
    },
    {
      "constant": false,
      "inputs": [
        {
          "name": "voterAddress",
          "type": "address"
        }
      ],
      "name": "voterIsRegistered",
      "outputs": [
        {
          "name": "",
          "type": "bool"
        }
      ],
      "payable": false,
      "stateMutability": "nonpayable",
      "type": "function"
    },
    {
      "constant": false,
      "inputs": [
        {
          "name": "_fName",
          "type": "string"
        },
        {
          "name": "_lName",
          "type": "string"
        },
        {
          "name": "_age",
          "type": "uint256"
        }
      ],
      "name": "register",
      "outputs": [],
      "payable": false,
      "stateMutability": "nonpayable",
      "type": "function"
    }
  ],
  "bytecode": "0x608060405234801561001057600080fd5b506100966040805190810160405280600481526020017f53617261000000000000000000000000000000000000000000000000000000008152506040805190810160405280600881526020017f436f686e656f7572000000000000000000000000000000000000000000000000815250602a61009b640100000000026401000000009004565b6102e7565b60008060003373ffffffffffffffffffffffffffffffffffffffff1673ffffffffffffffffffffffffffffffffffffffff168152602001908152602001600020600201541415156100eb57600080fd5b6012811015151561018a576040517f08c379a00000000000000000000000000000000000000000000000000000000081526004018080602001828103825260238152602001807f566f746572206d757374206265206174206c656173742031382079656172732081526020017f6f6c64000000000000000000000000000000000000000000000000000000000081525060400191505060405180910390fd5b606060405190810160405280848152602001838152602001828152506000803373ffffffffffffffffffffffffffffffffffffffff1673ffffffffffffffffffffffffffffffffffffffff1681526020019081526020016000206000820151816000019080519060200190610200929190610242565b50602082015181600101908051906020019061021d929190610242565b5060408201518160020155905050600160008154809291906001019190505550505050565b828054600181600116156101000203166002900490600052602060002090601f016020900481019282601f1061028357805160ff19168380011785556102b1565b828001600101855582156102b1579182015b828111156102b0578251825591602001919060010190610295565b5b5090506102be91906102c2565b5090565b6102e491905b808211156102e05760008160009055506001016102c8565b5090565b90565b6106fb806102f66000396000f300608060405260043610610062576000357c0100000000000000000000000000000000000000000000000000000000900463ffffffff16806398c0793814610067578063a3ec138d14610092578063ccb58761146101c1578063e8a605581461021c575b600080fd5b34801561007357600080fd5b5061007c6102d5565b6040518082815260200191505060405180910390f35b34801561009e57600080fd5b506100d3600480360381019080803573ffffffffffffffffffffffffffffffffffffffff1690602001909291905050506102db565b604051808060200180602001848152602001838103835286818151815260200191508051906020019080838360005b8381101561011d578082015181840152602081019050610102565b50505050905090810190601f16801561014a5780820380516001836020036101000a031916815260200191505b50838103825285818151815260200191508051906020019080838360005b83811015610183578082015181840152602081019050610168565b50505050905090810190601f1680156101b05780820380516001836020036101000a031916815260200191505b509550505050505060405180910390f35b3480156101cd57600080fd5b50610202600480360381019080803573ffffffffffffffffffffffffffffffffffffffff169060200190929190505050610435565b604051808215151515815260200191505060405180910390f35b34801561022857600080fd5b506102d3600480360381019080803590602001908201803590602001908080601f0160208091040260200160405190810160405280939291908181526020018383808284378201915050505050509192919290803590602001908201803590602001908080601f016020809104026020016040519081016040528093929190818152602001838380828437820191505050505050919291929080359060200190929190505050610483565b005b60015481565b6000602052806000526040600020600091509050806000018054600181600116156101000203166002900480601f0160208091040260200160405190810160405280929190818152602001828054600181600116156101000203166002900480156103875780601f1061035c57610100808354040283529160200191610387565b820191906000526020600020905b81548152906001019060200180831161036a57829003601f168201915b505050505090806001018054600181600116156101000203166002900480601f0160208091040260200160405190810160405280929190818152602001828054600181600116156101000203166002900480156104255780601f106103fa57610100808354040283529160200191610425565b820191906000526020600020905b81548152906001019060200180831161040857829003601f168201915b5050505050908060020154905083565b6000806000808473ffffffffffffffffffffffffffffffffffffffff1673ffffffffffffffffffffffffffffffffffffffff1681526020019081526020016000206002015414159050919050565b60008060003373ffffffffffffffffffffffffffffffffffffffff1673ffffffffffffffffffffffffffffffffffffffff168152602001908152602001600020600201541415156104d357600080fd5b60128110151515610572576040517f08c379a00000000000000000000000000000000000000000000000000000000081526004018080602001828103825260238152602001807f566f746572206d757374206265206174206c656173742031382079656172732081526020017f6f6c64000000000000000000000000000000000000000000000000000000000081525060400191505060405180910390fd5b606060405190810160405280848152602001838152602001828152506000803373ffffffffffffffffffffffffffffffffffffffff1673ffffffffffffffffffffffffffffffffffffffff16815260200190815260200160002060008201518160000190805190602001906105e892919061062a565b50602082015181600101908051906020019061060592919061062a565b5060408201518160020155905050600160008154809291906001019190505550505050565b828054600181600116156101000203166002900490600052602060002090601f016020900481019282601f1061066b57805160ff1916838001178555610699565b82800160010185558215610699579182015b8281111561069857825182559160200191906001019061067d565b5b5090506106a691906106aa565b5090565b6106cc91905b808211156106c85760008160009055506001016106b0565b5090565b905600a165627a7a7230582013f03f81049e58347b999ecf914d07e3a29233d851e6fbded6d930cd4690f6400029",
  "source": "pragma solidity ^0.4.24;\n\ncontract Passport {\n   // Model a voter\n    struct Voter {\n        string fName;\n        string lName;\n        uint   age;\n    }\n\n    // Store voters\n    mapping(address => Voter) public voters;\n    // Store voters Count\n    uint public votersCount;\n\n    constructor () public {\n        register(\"Sara\", \"Cohneour\", 42);\n    }\n\n    function voterIsRegistered (address voterAddress) public returns (bool) {\n        return voters[voterAddress].age != 0;\n    }\n\n    function register (string _fName, string _lName, uint _age) public {\n        // require that they haven't been registered before\n        require(voters[msg.sender].age == 0);\n        // require a valid candidate\n        require(_age >= 18, \"Voter must be at least 18 years old\");\n        // record that voter was registered\n        voters[msg.sender] = Voter(_fName, _lName, _age);\n        votersCount ++;\n    }\n}",
  "sourcePath": "/Users/i501492/dev/dapp-init/contracts/Passport.sol",
  "compiler": {
    "name": "solc",
    "version": "0.4.24+commit.e67f0147.Emscripten.clang"
  },
  "schemaVersion": "2.0.1",
  "updatedAt": "2018-12-11T08:51:22.137Z"
}