{
  "contractName": "Passport",
  "abi": [
    {
      "constant": true,
      "inputs": [],
      "name": "votersCount",
      "outputs": [
        {
          "name": "",
          "type": "uint256"
        }
      ],
      "payable": false,
      "stateMutability": "view",
      "type": "function"
    },
    {
      "constant": true,
      "inputs": [
        {
          "name": "",
          "type": "address"
        }
      ],
      "name": "voters",
      "outputs": [
        {
          "name": "uid",
          "type": "address"
        },
        {
          "name": "fName",
          "type": "string"
        },
        {
          "name": "lName",
          "type": "string"
        },
        {
          "name": "age",
          "type": "uint256"
        }
      ],
      "payable": false,
      "stateMutability": "view",
      "type": "function"
    },
    {
      "inputs": [],
      "payable": false,
      "stateMutability": "nonpayable",
      "type": "constructor"
    },
    {
      "constant": true,
      "inputs": [
        {
          "name": "voterAddress",
          "type": "address"
        }
      ],
      "name": "voterIsRegistered",
      "outputs": [
        {
          "name": "",
          "type": "bool"
        }
      ],
      "payable": false,
      "stateMutability": "view",
      "type": "function"
    },
    {
      "constant": false,
      "inputs": [
        {
          "name": "_fName",
          "type": "string"
        },
        {
          "name": "_lName",
          "type": "string"
        },
        {
          "name": "_age",
          "type": "uint256"
        }
      ],
      "name": "register",
      "outputs": [],
      "payable": false,
      "stateMutability": "nonpayable",
      "type": "function"
    }
  ],
  "bytecode": "0x608060405234801561001057600080fd5b506100966040805190810160405280600481526020017f53617261000000000000000000000000000000000000000000000000000000008152506040805190810160405280600881526020017f436f686e656f7572000000000000000000000000000000000000000000000000815250602a61009b640100000000026401000000009004565b61034a565b60008060003373ffffffffffffffffffffffffffffffffffffffff1673ffffffffffffffffffffffffffffffffffffffff168152602001908152602001600020600301541415156100eb57600080fd5b6012811015151561018a576040517f08c379a00000000000000000000000000000000000000000000000000000000081526004018080602001828103825260238152602001807f566f746572206d757374206265206174206c656173742031382079656172732081526020017f6f6c64000000000000000000000000000000000000000000000000000000000081525060400191505060405180910390fd5b6080604051908101604052803373ffffffffffffffffffffffffffffffffffffffff168152602001848152602001838152602001828152506000803373ffffffffffffffffffffffffffffffffffffffff1673ffffffffffffffffffffffffffffffffffffffff16815260200190815260200160002060008201518160000160006101000a81548173ffffffffffffffffffffffffffffffffffffffff021916908373ffffffffffffffffffffffffffffffffffffffff16021790555060208201518160010190805190602001906102639291906102a5565b5060408201518160020190805190602001906102809291906102a5565b5060608201518160030155905050600160008154809291906001019190505550505050565b828054600181600116156101000203166002900490600052602060002090601f016020900481019282601f106102e657805160ff1916838001178555610314565b82800160010185558215610314579182015b828111156103135782518255916020019190600101906102f8565b5b5090506103219190610325565b5090565b61034791905b8082111561034357600081600090555060010161032b565b5090565b90565b6107b7806103596000396000f300608060405260043610610062576000357c0100000000000000000000000000000000000000000000000000000000900463ffffffff16806398c0793814610067578063a3ec138d14610092578063ccb58761146101f4578063e8a605581461024f575b600080fd5b34801561007357600080fd5b5061007c610308565b6040518082815260200191505060405180910390f35b34801561009e57600080fd5b506100d3600480360381019080803573ffffffffffffffffffffffffffffffffffffffff16906020019092919050505061030e565b604051808573ffffffffffffffffffffffffffffffffffffffff1673ffffffffffffffffffffffffffffffffffffffff1681526020018060200180602001848152602001838103835286818151815260200191508051906020019080838360005b8381101561014f578082015181840152602081019050610134565b50505050905090810190601f16801561017c5780820380516001836020036101000a031916815260200191505b50838103825285818151815260200191508051906020019080838360005b838110156101b557808201518184015260208101905061019a565b50505050905090810190601f1680156101e25780820380516001836020036101000a031916815260200191505b50965050505050505060405180910390f35b34801561020057600080fd5b50610235600480360381019080803573ffffffffffffffffffffffffffffffffffffffff16906020019092919050505061048e565b604051808215151515815260200191505060405180910390f35b34801561025b57600080fd5b50610306600480360381019080803590602001908201803590602001908080601f0160208091040260200160405190810160405280939291908181526020018383808284378201915050505050509192919290803590602001908201803590602001908080601f0160208091040260200160405190810160405280939291908181526020018383808284378201915050505050509192919290803590602001909291905050506104dc565b005b60015481565b60006020528060005260406000206000915090508060000160009054906101000a900473ffffffffffffffffffffffffffffffffffffffff1690806001018054600181600116156101000203166002900480601f0160208091040260200160405190810160405280929190818152602001828054600181600116156101000203166002900480156103e05780601f106103b5576101008083540402835291602001916103e0565b820191906000526020600020905b8154815290600101906020018083116103c357829003601f168201915b505050505090806002018054600181600116156101000203166002900480601f01602080910402602001604051908101604052809291908181526020018280546001816001161561010002031660029004801561047e5780601f106104535761010080835404028352916020019161047e565b820191906000526020600020905b81548152906001019060200180831161046157829003601f168201915b5050505050908060030154905084565b6000806000808473ffffffffffffffffffffffffffffffffffffffff1673ffffffffffffffffffffffffffffffffffffffff1681526020019081526020016000206003015414159050919050565b60008060003373ffffffffffffffffffffffffffffffffffffffff1673ffffffffffffffffffffffffffffffffffffffff1681526020019081526020016000206003015414151561052c57600080fd5b601281101515156105cb576040517f08c379a00000000000000000000000000000000000000000000000000000000081526004018080602001828103825260238152602001807f566f746572206d757374206265206174206c656173742031382079656172732081526020017f6f6c64000000000000000000000000000000000000000000000000000000000081525060400191505060405180910390fd5b6080604051908101604052803373ffffffffffffffffffffffffffffffffffffffff168152602001848152602001838152602001828152506000803373ffffffffffffffffffffffffffffffffffffffff1673ffffffffffffffffffffffffffffffffffffffff16815260200190815260200160002060008201518160000160006101000a81548173ffffffffffffffffffffffffffffffffffffffff021916908373ffffffffffffffffffffffffffffffffffffffff16021790555060208201518160010190805190602001906106a49291906106e6565b5060408201518160020190805190602001906106c19291906106e6565b5060608201518160030155905050600160008154809291906001019190505550505050565b828054600181600116156101000203166002900490600052602060002090601f016020900481019282601f1061072757805160ff1916838001178555610755565b82800160010185558215610755579182015b82811115610754578251825591602001919060010190610739565b5b5090506107629190610766565b5090565b61078891905b8082111561078457600081600090555060010161076c565b5090565b905600a165627a7a72305820eb4ce964b7a9b75ac431ec7895bdb9f8d87de3c4a5c873c1d471d6dc13e2e3f10029",
  "source": "pragma solidity ^0.4.24;\n\ncontract Passport {\n   // Model a voter\n    struct Voter {\n        address uid;\n        string fName;\n        string lName;\n        uint   age;\n    }\n\n    // Store voters\n    mapping(address => Voter) public voters;\n    // Store voters Count\n    uint public votersCount;\n\n    constructor () public {\n        register(\"Sara\", \"Cohneour\", 42);\n    }\n\n    function voterIsRegistered (address voterAddress) public view returns (bool) {\n        return voters[voterAddress].age != 0;\n    }\n\n    function register (string _fName, string _lName, uint _age) public {\n        // require that they haven't been registered before\n        require(voters[msg.sender].age == 0);\n        // require a valid candidate\n        require(_age >= 18, \"Voter must be at least 18 years old\");\n        // record that voter was registered\n        voters[msg.sender] = Voter(msg.sender, _fName, _lName, _age);\n        votersCount ++;\n    }\n}",
  "sourcePath": "/Users/i501492/dev/dapp-init/contracts/Passport.sol",
  "compiler": {
    "name": "solc",
    "version": "0.4.24+commit.e67f0147.Emscripten.clang"
  },
  "schemaVersion": "2.0.1",
  "updatedAt": "2018-12-13T12:31:56.034Z"
}